:020000040800F2
:1000000000400020590700089D0600089F060008D0
:1000100000000000000000000000000000000000E0
:10002000000000000000000000000000A106000821
:100030000000000000000000A3060008A50600085C
:10004000A9070008A9070008A9070008A9070008D0
:10005000A9070008A9070008A9070008A9070008C0
:10006000A9070008A9070008A9070008A9070008B0
:10007000A9070008A9070008A9070008A9070008A0
:10008000A9070008A9070008A9070008A907000890
:10009000A9070008A9070008A9070008A907000880
:1000A000A9070008A9070008A9070008A907000870
:1000B000A9070008A9070008A9070008A907000860
:1000C00010B5064C2378002B07D1054B002B02D02E
:1000D000044800E000BF0123237010BD0C00002085
:1000E00000000000B41B0008044B10B5002B03D027
:1000F0000349044800E000BF10BDC04600000000F6
:1001000010000020B41B0008002243088B4274D367
:1001100003098B425FD3030A8B4244D3030B8B4208
:1001200028D3030C8B420DD3FF22090212BA030C11
:100130008B4202D31212090265D0030B8B4219D3F2
:1001400000E0090AC30B8B4201D3CB03C01A524112
:10015000830B8B4201D38B03C01A5241430B8B425A
:1001600001D34B03C01A5241030B8B4201D30B0343
:10017000C01A5241C30A8B4201D3CB02C01A52416A
:10018000830A8B4201D38B02C01A5241430A8B422D
:1001900001D34B02C01A5241030A8B4201D30B0216
:1001A000C01A5241CDD2C3098B4201D3CB01C01A30
:1001B000524183098B4201D38B01C01A524143093A
:1001C0008B4201D34B01C01A524103098B4201D328
:1001D0000B01C01A5241C3088B4201D3CB00C01A95
:1001E000524183088B4201D38B00C01A524143080D
:1001F0008B4201D34B00C01A5241411A00D2014632
:10020000524110467047FFE701B5002000F006F8A4
:1002100002BDC0460029F7D076E770477047C04658
:1002200010B500F041F810BD10B5034800F05CF8BF
:10023000024800F059F810BD4800002028000020B6
:1002400010B5024800F07FF810BDC046280000201D
:1002500010B50A000100024800F06BF810BDC0465E
:100260004800002010B5FA2080000100FFF7F0FFE1
:1002700010BD000010B58022084C12022100084871
:1002800000F022F88022D2012100064800F01CF87C
:10029000FFF7E8FFFFF7D4FF10BDC0460008004895
:1002A000280000204800002010B5064B1B78002BCA
:1002B00002D0FFF7B9FF10BDFFF7DCFF014B0122B1
:1002C0001A70F6E74400002010B504000160828037
:1002D00000230376037400F050F86061A188206861
:1002E000002200F06FFC10BD10B50400037E002B4F
:1002F00008D0037C002B0ED01430A16800F02DF83C
:10030000002800D110BD00232374A188206800229A
:1003100000F058FCF6E71430A16800F01EF8002841
:10032000F0D001232374A1882068012200F04AFC48
:10033000E8E710B504008160C2600123037600F095
:100340001CF8606110BD10B500230374037681882A
:100350000068002200F036FC10BD70B504000D00EE
:1003600000F068FA2368C01AA84201D8002070BDC6
:1003700000F060FA20600120F9E710B500F05AFAA9
:1003800010BD000010B50C480C4B036010234360F7
:1003900000238360C3600361436103764376837601
:1003A000C3760377437700F04BFA002800D110BDE5
:1003B00000F000F9FBE7C046640000200064004044
:1003C00010B588B004001422002103A801F0EAFB54
:1003D0002268134B9A4201D008B010BD114BD96965
:1003E000802080040143D961DA6902400192019AB8
:1003F0005A698021C9020A435A615B690B40029322
:10040000029BC0239B0003930223049301330693B2
:100410000133079303A9044800F006FBDCE7C0465C
:1004200000640040001002400004004830B58BB06A
:100430001422002105A801F0B5FB1C4B596980204E
:100440000003014359615A6902400192019A5969B6
:100450008020C003014359615A6902400292029A06
:1004600059698020C002014359615A6902400392D0
:10047000039A5A69802189020A435A615B690B40D9
:100480000493049BC0252D02094C00222900200062
:1004900000F098FB0595012306930023079308932A
:1004A00005A9200000F0C0FA0BB030BD00100240DA
:1004B0000008004810B51448144B0360144B436007
:1004C000002383600122C260036143618361C361D1
:1004D000036200F07DFB00280CD100210A4800F0E7
:1004E000DDFB002809D10021074800F003FC0028AB
:1004F00006D110BD00F05EF8EFE700F05BF8F2E720
:1005000000F058F8F5E7C0468C0000200058004085
:100510005D3E302010B588B004001422002103A8ED
:1005200001F040FB2268134B9A4201D008B010BD85
:10053000114C62698021C9020A43626163690B4000
:100540000193019BC0231B010393122304930F3BD0
:100550000693023B079303A9084800F065FAE26995
:100560008021C9030A43E261E3690B400293029BC5
:10057000DCE7C0460058004000100240000400487C
:1005800010B50848084B036004234360074BC36061
:10059000074B836000F0D8FB002800D110BD00F0AD
:1005A00009F8FBE7E000002000300040FF0F0000EA
:1005B000340C000072B6FEE700B599B03422002179
:1005C0000BA801F0EFFA1022002107A801F0EAFAC7
:1005D0001C220021684601F0E5FA09230B93083B31
:1005E0000C9312930133149380235B0215938023A1
:1005F0001B0316930BA800F0E3FB002817D1072379
:100600000793053B0893002309930A93012107A848
:1006100000F0BAFE00280CD10123009300230293BE
:10062000684600F069FF002805D119B000BDFFF74A
:10063000C1FFFFF7BFFFFFF7BDFF000010B500F0DF
:10064000DDF8FFF7B9FFFFF7F1FEFFF79BFEFFF7BD
:1006500031FFFFF795FF00F02BF8FFF7E1FD0248AF
:1006600000F0A6FBF9E7C046E000002082B00A4B8C
:10067000996901221143996199690A400092009A8F
:10068000DA69802149050A43DA61DB690B4001938D
:10069000019B02B07047C04600100240FEE7FEE733
:1006A0007047704710B500F0B9F810BD70470000F2
:1006B00010B50D480D4B036096231B0243600023C9
:1006C0008360C36003610C2242618361C361036282
:1006D00043620022002101F0F9F9002800D110BD89
:1006E000FFF768FFFBE7C046F0000020003801403C
:1006F00010B588B004001422002103A801F052FABA
:100700002268134B9A4201D008B010BD114B996971
:100710008020C001014399619A6902400192019AC7
:100720005A69802189020A435A615B690B4002932E
:10073000029BB0235B0103930223049301330693CE
:10074000023B0793902003A9C00500F06DF9DBE799
:1007500000380140001002400D488546FFF7A6FF13
:100760000C480D490D4A002302E0D458C45004330C
:10077000C4188C42F9D30A4A0A4C002301E01360E2
:100780000432A242FBD301F0E9F9FFF757FFFEE77D
:1007900000400020000000200C0000200C1C00087D
:1007A0000C0000207C010020FEE7000010B50400D2
:1007B0000F4B1978FA208000FFF7A6FC01000D4BC3
:1007C0001868FFF7A1FC00F013F900280DD1032CE5
:1007D00001D901200AE0013000222100404200F04E
:1007E000D7F8054B1C60002000E0012010BDC0467A
:1007F00004000020000000200800002010B5064A78
:10080000136810210B4313600320FFF7CFFFFFF79E
:100810002DFF002010BDC04600200240034A116891
:10082000034B1B785B1813607047C04678010020AB
:1008300004000020014B18687047C0467801002072
:1008400070B5041E00D1A0E02023C35C002B1AD099
:100850002268136801210B431360FFF7EBFF0500CB
:1008600023685A68D20711D4FFF7E4FF401B0A2817
:10087000F6D9626A80239B02134363622023052218
:10088000E254012070BDFFF79BFDE1E71A680221E9
:100890008A431A60FFF7CEFF050023685A68920763
:1008A0000ED5FFF7C7FF401B0A28F6D9626A8023DE
:1008B0009B021343636220230522E2540120E1E7F7
:1008C000227E012A3ED01A6880218A431A60637E04
:1008D000012B3CD02268136840218B431360A37E18
:1008E000012B3AD02268136820218B431360E37EEA
:1008F000012B38D02268136810210B431360237F2B
:10090000012B36D02268136808218B431360637F64
:10091000012B34D02268136804218B431360A36831
:10092000E268134322691343626913436268013A20
:1009300021681343CB610023636220330122E25418
:1009400000209FE71A6880210A431A60BFE72268E7
:10095000136840210B431360C1E72268136820210C
:100960000B431360C3E72268136810218B431360A5
:10097000C5E72268136808210B431360C7E72268A4
:10098000136804210B431360C9E701207AE70000D4
:1009900070B5002811DB8308134EC0339B009D59AE
:1009A00003242040C000FF2214008440A543890195
:1009B0000A4082402A439A5170BD0F230340083BEE
:1009C0009B0806339B00094A944663445C680322F3
:1009D0001040C000FC3215008540AC4389010A403C
:1009E000824022435A60E7E700E100E000ED00E0CA
:1009F000013880235B0498420FD2094A50600948AD
:100A0000036A1B021B0AC02109060B430362002371
:100A1000936007331360002070470120FCE7C04655
:100A200010E000E000ED00E0F0B583B0002357E0F7
:100A300084685F000326BE40B4432600CC68BC40F7
:100A400034438460446894434A6816090122324062
:100A50009A402243426053E0DC080834A400265840
:100A600005321A4092000F279740BE430F69974006
:100A70003A003243225057E0042600E00026A64008
:100A800034003C4302329200474E9451474A9468E6
:100A9000EA432600AE434F68FF0201D52C432600EF
:100AA000424CA660E468260016404F68BF0201D59C
:100AB0002C4326003D4CE6606468260016404F68D3
:100AC000BF0301D52C432600384C666024682240C1
:100AD0004E68F60301D52A002243344C22600133CC
:100AE0000C682200DA405CD001229A4025001540B3
:100AF0001442F4D003244E683440013C012C97D9B1
:100B000003224C682240032A09D0C2685E000324F5
:100B1000B440A24314008A68B2402243C260032258
:100B20004C682240022A97D004685E000322170016
:100B3000B740BC434F683A40B24022430260C022F3
:100B400092024C681442CAD0194CA669012216437D
:100B5000A661A46922400192019A9A08941CA400FB
:100B6000114EA75903261E40B4000F26A640B743D6
:100B70009026F605B04281D00E4EB0420BD00E4EFC
:100B8000B0420AD00D4EB04209D00D4EB04200D155
:100B900072E7052673E7012671E702266FE7032651
:100BA0006DE703B0F0BDC046000001400004014005
:100BB000001002400004004800080048000C0048F3
:100BC00000100048002A01D0816170478162FCE773
:100BD00010B5041E59D04123C35C002B43D04123E0
:100BE0002422E2542268136801218B431360226897
:100BF000274B61680B4013612268936825490B40BD
:100C00009360E368012B34D0226884231B02A1681F
:100C10000B439360E368022B32D0226851681E4B6D
:100C20000B4353602268D3681A490B40D360236991
:100C300062691343A269120221681343CB602268E0
:100C4000E369216A0B4313602268136801210B4397
:100C500013600023636441221F31A15423630132D6
:100C6000A354002010BD40330022C254FFF752FCB1
:100C7000B5E7226880231B02A1680B439360C9E794
:100C80002368802212015A60C7E70120EAE7C046C4
:100C9000FFFFFFF0FF7FFFFF00800002F0B5412360
:100CA000C35C202B20D12033C35C012B1ED04024F9
:100CB0000122025541252423435506683368934396
:100CC0003360066833680A4F3B4033600668336818
:100CD0001943316001680B6813430B6020234355AF
:100CE000002303550020F0BD0220FCE70220FAE7B4
:100CF000FFEFFFFFF0B54123C35C202B1ED1203353
:100D0000C35C012B1CD04024012202554125242321
:100D10004355066833689343336006683368094F68
:100D20003B4009021943316001680B6813430B60B3
:100D300020234355002303550020F0BD0220FCE78B
:100D40000220FAE7FFF0FFFF70B5041E28D0036809
:100D5000144A1A600368144A1A60036842685A60A9
:100D6000036882689A60FFF765FD05002368DA680A
:100D700052070AD0FFF75EFD401B2728F6D92368EB
:100D8000DB685B07F2D003200BE01969E26891424F
:100D900002D01A61002004E0044A1A60002000E03A
:100DA000012070BDCCCC000055550000AAAA00005F
:100DB0000368024A1A6000207047C046AAAA0000D1
:100DC00070B582B0041E00D17FE20368DB072BD52B
:100DD000B34B5A680C231340042B1DD0B04B5A68F8
:100DE0000C231340082B0ED06368012B41D0002B3D
:100DF00056D1AB4B1A68AB490A401A601A68AA4927
:100E00000A401A603BE0A64B5B68C02252021340C6
:100E1000802252029342E7D1A14B1B689B0303D56A
:100E20006368002B00D153E223689B0777D59C4B66
:100E30005B680C221A4262D0994B5A680C2313400B
:100E4000082B53D0E368002B00D18AE0944A136842
:100E500001210B431360FFF7EDFC0500904B1B686D
:100E60009B0775D4FFF7E6FC401B0228F6D9032048
:100E70002CE28B4A116880235B020B43136063688A
:100E8000002B25D0FFF7D6FC0500854B1B689B0384
:100E9000CAD4FFF7CFFC401B6428F6D9032015E223
:100EA000052B09D07E4B1A687E490A401A601A68E1
:100EB0007D490A401A60E2E7794B19688022D20224
:100EC0000A431A601968802252020A431A60D6E760
:100ED000FFF7B0FC0500724B1B689B03A4D5FFF71E
:100EE000A9FC401B6428F6D90320EFE16C4B5B683A
:100EF000C02252021340802212029342A2D1684BB8
:100F00001B689B0703D5E368012B00D0E2E164492D
:100F10000B68F82293432269D20013430B602368C5
:100F20001B0744D5E369002B2ED05D4A536A01218B
:100F30000B435362FFF77EFC0500594B5B6A9B072E
:100F400035D4FFF777FC401B0228F6D90320BDE11A
:100F500053490B68F82293432269D20013430B6074
:100F6000DDE74F4A136801218B431360FFF762FCF2
:100F700005004B4B1B689B07D1D5FFF75BFC401B63
:100F80000228F6D90320A1E1454A536A01218B4387
:100F90005362FFF74FFC0500414B5B6A9B0706D588
:100FA000FFF748FC401B0228F6D903208EE1236896
:100FB0005B0700D480E03A4BDB69DB001DD4384A84
:100FC000D169802040050143D161D3690340019379
:100FD000019B0125354B1B68DB0510D5A368012B50
:100FE00021D0002B36D12E4B1A6A01218A431A6276
:100FF0001A6A03318A431A621AE00025EAE72B4A8B
:10100000116880235B000B431360FFF713FC06009D
:10101000264B1B68DB05E1D4FFF70CFC801B642822
:10102000F6D9032052E11E4A136A01210B431362D1
:10103000A368002B24D0FFF7FDFB0600184B1B6AAA
:101040009B0737D4FFF7F6FB801B194B9842F5D965
:1010500003203BE1052B09D0114B1A6A01218A4379
:101060001A621A6A03318A431A62E1E70C4B1A6A60
:1010700004210A431A621A6A03390A431A62D7E73B
:10108000FFF7D8FB0600064B1B6A9B0712D5FFF73C
:10109000D1FB801B064B9842F5D9032016E1C046D0
:1010A00000100240FFFFFEFFFFFFFBFF007000404B
:1010B00088130000012D39D02368DB0610D5636941
:1010C000012B39D0053357D1894A536B04218B4307
:1010D0005363536BF4318B43A169C9000B435363D2
:1010E00023689B066ED5824B5A680C2313400C2B49
:1010F00060D07F4B5A680C231340082B53D0236ACF
:10110000002B7ED07A4A516B80235B020B435363E2
:10111000FFF790FB0500764B5B6B9B0352D4FFF708
:1011200089FB401B0228F6D90320CFE0704AD3691F
:1011300070490B40D361BFE76D4B5A6B04210A43E2
:101140005A635A6B03390A435A63FFF773FB05006E
:10115000674B5B6B9B0706D4FFF76CFB401B0228B9
:10116000F6D90320B2E062494B6BF8229343A2699F
:10117000D20013434B63B3E75D4B5A6B04210A4320
:101180005A635A6B03398A435A63FFF753FB0500CE
:10119000574B5B6B9B07A3D5FFF74CFB401B02280B
:1011A000F6D9032092E0524B5B68C02252021340F2
:1011B0009342A4D14E4B5B6B9B0303D5236A012B57
:1011C00000D089E0636A002B00D187E0484A51686B
:1011D0000C220A40082A60D0022B25D0444A13680A
:1011E00045490B401360FFF725FB0400404B1B688B
:1011F0009B0150D5FFF71EFB001B0228F6D90320E8
:1012000064E03B4A536B3D490B405363FFF712FBCD
:101210000500374B5B6B9B03D4D5FFF70BFB401BE3
:101220000228F6D9032051E0314A136832490B40B5
:101230001360FFF7FFFA05002D4B1B689B0106D5D5
:10124000FFF7F8FA401B0228F6D903203EE0284BAE
:10125000DA6A0F218A43216B0A43DA625A68284905
:101260000A40E16AA06A01430A435A601968802271
:1012700052040A431A60FFF7DDFA04001C4B1B6896
:101280009B0106D4FFF7D6FA001B0228F6D90320EB
:101290001CE000201AE0002018E0012B20D0144BA5
:1012A0005A68D96AC0235B021340A06A834219D1ED
:1012B0000F230B40216B8B4216D1F0239B031A4066
:1012C000E36A9A4212D1002000E0012002B070BD12
:1012D0000120FBE70120F9E70120F7E70020F5E70F
:1012E0000120F3E70120F1E70120EFE70120EDE71E
:1012F00000100240FFFFFFEFFFFFFFFEFFFFFEFFBA
:10130000FF7FC2FF10B51A4B5A680C231340082BFD
:1013100007D00C2B29D0042B01D0164810BD16483D
:10132000FCE7910C0F2319401448445C1049C96A2A
:101330000B401349C95CC0235B021A4080235B0247
:101340009A4208D0C0235B029A4209D00948FEF7AE
:10135000DBFE6043E2E70848FEF7D6FE6043DDE7C8
:101360000848FEF7D1FE6043D8E70648D6E7C046F6
:101370000010024000127A00001BB700E41B0008B6
:10138000F41B0008006CDC0270B504000D0000289E
:1013900000D186E0474B1A68012313408B420AD2E2
:1013A00044490B68012293432B430B600B681A409E
:1013B000AA4200D077E023689A070ED55B0705D5CF
:1013C0003D4A5168E023DB000B4353603A4A5368BF
:1013D000F0218B43A1680B4353602368DB0735D5AD
:1013E0006368012B09D0022B24D0032B28D0324A6A
:1013F0001268920705D4012052E02F4A1268920326
:1014000053D52D494A680320824313434B60FFF7AD
:1014100011FA0600284B5B680C221A4063689B0097
:101420009A4213D0FFF706FA801B244B9842F1D959
:10143000032035E0204A12689201E2D401202FE017
:101440001D4A526B9203DCD4012029E0194B1A6823
:1014500001231340AB4209D916490B68012293437B
:101460002B430B600B681A40AA4220D123685B070C
:1014700006D5114A536812490B40E1680B4353608B
:10148000FFF740FF0C4B5A6812090F2313400D4A17
:10149000D35CD8400C4B18600320FFF787F900207D
:1014A00070BD0120FCE70120FAE70120F8E70120E8
:1014B000F6E7C046002002400010024088130000FA
:1014C000FFF8FFFFCC1B000800000020014B18684C
:1014D0007047C0460000002010B5FFF7F7FF044B2F
:1014E0005A68120A07231340024AD35CD84010BD41
:1014F00000100240DC1B000870B582B004000368D5
:10150000DB0337D54C4BDB69DB0067D44A4AD16932
:10151000802040050143D161D36903400193019BC1
:101520000125464B1B68DB055AD5434B1A6AC0237D
:101530009B00110019401A4213D0626813408B427D
:101540000FD03D4B186A3E4A02401E6A8021490274
:1015500031431962196A3B4E314019621A62C3075E
:1015600052D4354A136A36490B4061680B43136203
:10157000012D58D02368DB0706D52F4A136B0321B2
:101580008B43A1680B43136323689B0706D52A4A44
:10159000136B2D490B40E1680B43136323689B06D3
:1015A00006D5254A136B10218B4321690B43136326
:1015B00023689B0306D5204A136B80218B43A169C6
:1015C0000B43136323685B0532D51B4A136B402121
:1015D0008B4361690B43136300202AE00025A0E7D9
:1015E000164A116880235B000B431360FFF722F952
:1015F0000600124B1B68DB0597D4FFF71BF9801B15
:101600006428F6D9032014E0FFF714F906000A4B0A
:101610001B6A9B07A5D4FFF70DF9801B0B4B984263
:10162000F5D9032005E0D36909490B40D361A1E74F
:10163000002002B070BDC0460010024000700040A3
:10164000FFFCFFFFFFFFFEFFFFFFFCFF8813000012
:10165000FFFFFFEF10B5EFF3108C012282F310882B
:1016600001680B68124C23400B608CF31088EFF379
:10167000108C82F3108801688B6893438B608CF325
:101680001088036E012B06D080232022C250002335
:101690000366836610BDEFF3108183F31088026840
:1016A00013683234FF34A343136081F31088EBE7EF
:1016B000DFFEFFFF10B5040083680269134342692F
:1016C0001343C269134301680A6864480240134324
:1016D0000B602268536862490B40E1680B4353601A
:1016E000226AA3691A4321688B685E48034013434A
:1016F0008B6023685C4A93420AD05C4A934238D09C
:101700005B4A93425FD05B4A93424AD010230BE07E
:10171000594B1A6B03231340022B44D025D8002BBE
:1017200043D0012B43D10333E0698022120290425F
:101730004BD0042B00D189E077D8002B00D17EE07C
:10174000022B70D14D4863685B0818186168FEF77A
:10175000DBFC0200103A4A4B9A4200D97BE0236836
:101760000004000CD860002065E0032B21D1013B70
:10177000DAE7414B1B6BC022920213408022920297
:10178000934218D007D8002B17D0802252029342E0
:1017900015D10423C8E7C0229202934211D102233B
:1017A000C2E70023C0E70823BEE70023BCE71023FD
:1017B000BAE71023B8E70823B6E70023B4E71023FD
:1017C000B2E71023B0E70023AEE7042B28D01DD8E2
:1017D000002B1FD0022B17D12848400063685B08FC
:1017E000C0186168FEF790FC0200103A244B9A4240
:1017F0002FD882B20F239A434008083B1840104369
:101800002368D860002016E0012014E0082BE4D003
:10181000012010E0FFF760FE0028DED100200AE082
:10182000FFF770FDF8E7012005E0082B02D18020CA
:10183000000288E701200023A366E36610BDFFF7DE
:101840004BFE002800D07EE70020F4E7FFF75AFDAA
:10185000F7E70120EFE70120EDE7C046F369FFEF6E
:10186000FFCFFFFFFFF4FFFF0038014000440040BE
:1018700000480040004C00400010024000127A0076
:10188000EFFF0000436ADB0706D5026853682C4966
:101890000B40816A0B435360436A9B0706D502687D
:1018A000536828490B40C16A0B435360436A5B0786
:1018B00006D50268536824490B40016B0B43536003
:1018C000436A1B0706D50268536820490B40416BE9
:1018D0000B435360436ADB0606D5026893681C49D4
:1018E0000B40816B0B439360436A9B0606D50268ED
:1018F000936818490B40C16B0B439360436A5B06C6
:101900000BD50268536814490B40016C0B435360BC
:1019100080235B03026C9A420AD0436A1B0606D5F9
:10192000026853680D490B40816C0B43536070474C
:10193000026853680A490B40416C0B435360ECE763
:10194000FFFFFDFFFFFFFEFFFFFFFBFFFF7FFFFF2E
:10195000FFEFFFFFFFDFFFFFFFFFEFFFFFFFF7FFDF
:10196000FFFF9FFFF8B5CE46474680B506000D0045
:1019700017009946089B98463368DC692C40641B25
:1019800063425C41BC422FD143460133F4D0FEF7A1
:1019900051FF4B46C01A40452BD84346002B2AD056
:1019A00033681A685207E7D5DA69120710D4DA6982
:1019B0001205E1D5802212011A623000FFF74AFEBB
:1019C00084232022F2500C3B0022F25403200CE02E
:1019D00008241C623000FFF73DFE8423F4500C3BCA
:1019E0000022F254012000E00020C0BCB946B046FD
:1019F000F8BD0320F9E70320F7E7000030B583B016
:101A0000040084230022C250FEF714FF0500226860
:101A1000126813070FD423681B685B0729D420239F
:101A2000E3678022A350002323666366083AA35429
:101A3000002003B030BD8021224B00930300002220
:101A400089032000FFF78EFF0028E4D0EFF3108118
:101A5000012383F310882268136880208343136076
:101A600081F310882023E36758330022E2547D3845
:101A7000DFE78021134B00932B000022C9032000D5
:101A8000FFF770FF0028CAD0EFF31080012282F325
:101A9000108821680B680C4D2B400B6080F3108878
:101AA000EFF3108082F3108821688B6893438B607A
:101AB00080F3108880231F32E250083B0022E2545A
:101AC0000320B6E7FFFFFF01DFFEFFFFF8B50400CC
:101AD0000F0016001D00002839D0C36F002B2CD03A
:101AE0002423E3672268136801218B4313602000DD
:101AF000FFF7E0FD01281FD0636A002B23D1226885
:101B000091688023DB010B43936023689968114A35
:101B100011400F439F6076052D04354323681E68EE
:101B20000D4A164035431D602268136801210B439E
:101B300013602000FFF762FFF8BD78330022C25423
:101B4000FEF7D6FDCCE72000FFF79CFED7E701208B
:101B5000F2E7C046FF7FFFFFFFFF00FC70B50026E5
:101B60000C4D0D4C641BA410A64209D1002600F0B8
:101B700021F80A4D0A4C641BA410A64205D170BD81
:101B8000B300EB5898470136EEE7B300EB5898479F
:101B90000136F2E7041C0008041C0008041C0008BD
:101BA000081C000803008218934200D17047197086
:101BB0000133F9E7F8B5C046F8BC08BC9E4670474B
:0C1BC000F8B5C046F8BC08BC9E46704753
:101BCC0000000000000000000102030406070809E1
:101BDC0000000000010203040203040506070809C3
:101BEC000A0B0C0D0E0F101001020304050607085A
:081BFC00090A0B0C0D0E0F107D
:041C0400E9000008EB
:041C0800C10000080F
:0C1C0C0000127A0001000000040000003B
:04000005080007598F
:00000001FF
