:020000040800F2
:0800000000400020352000083B
:10000800FFFFFFFFFFFFFFFFFFFFFFFFFFFFFFFFF8
:10001800FFFFFFFFFFFFFFFFFFFFFFFFFFFFFFFFE8
:10002800FFFFFFFFFFFFFFFFFFFFFFFFFFFFFFFFD8
:10003800FFFFFFFFFFFFFFFFFFFFFFFFFFFFFFFFC8
:080FF800FFFFFFFFFFFFFFAA4E
:101000000040002035200008E11E0008E31E000813
:1010100000000000000000000000000000000000D0
:10102000000000000000000000000000E51E0008B5
:101030000000000000000000E71E0008E91E000894
:1010400089200008892000088920000889200008DC
:1010500089200008892000088920000889200008CC
:1010600089200008892000088920000889200008BC
:1010700089200008892000088920000889200008AC
:10108000892000088920000889200008892000089C
:10109000892000088920000889200008892000088C
:1010A000892000088920000889200008892000087C
:1010B000892000088920000889200008892000086C
:1010C00010B5064C2378002B07D1054B002B02D01E
:1010D000044800E000BF0123237010BD3801002048
:1010E000000000001C510008044B10B5002B03D079
:1010F0000349044800E000BF10BDC04600000000E6
:101100003C0100201C51000803B47146490840000E
:101110004900095E49008E4403BC70470022430821
:101120008B4274D303098B425FD3030A8B4244D3AF
:10113000030B8B4228D3030C8B420DD3FF220902F1
:1011400012BA030C8B4202D31212090265D0030BB0
:101150008B4219D300E0090AC30B8B4201D3CB03A6
:10116000C01A5241830B8B4201D38B03C01A5241E8
:10117000430B8B4201D34B03C01A5241030B8B42EA
:1011800001D30B03C01A5241C30A8B4201D3CB02D5
:10119000C01A5241830A8B4201D38B02C01A5241BA
:1011A000430A8B4201D34B02C01A5241030A8B42BD
:1011B00001D30B02C01A5241CDD2C3098B4201D3D5
:1011C000CB01C01A524183098B4201D38B01C01A53
:1011D000524143098B4201D34B01C01A52410309CA
:1011E0008B4201D30B01C01A5241C3088B4201D379
:1011F000CB00C01A524183088B4201D38B00C01A26
:10120000524143088B4201D34B00C01A5241411A4C
:1012100000D20146524110467047FFE701B5002059
:1012200000F006F802BDC0460029F7D076E7704707
:101230007047C04610B5034B187000F0ABFC024B72
:10124000186010BD600100206401002010B501008D
:10125000014800F0EEF810BD5401002010B584B034
:10126000174B1B78002B03D0012B10D004B010BDFE
:10127000144B1968144C154A200000F08BF891218A
:10128000200000F0A1F80120FFF7D4FFEEE7694647
:101290000D4800F0E4F80028E8D00D4B009A134008
:1012A000912252029342E1D1684600F077FC002877
:1012B000DCD1684600F0B6FB6846FFF7C7FFD5E70C
:1012C00060010020C00000205401002044510008AB
:1012D00000FE070010B5FFF7C1FF00F041F810BD98
:1012E00010B5034800F019FA024800F016FA10BDD4
:1012F000880100206801002010B5024800F03CFA87
:1013000010BDC0466801002010B50A000100024867
:1013100000F028FA10BDC0468801002010B5FA2060
:1013200080000100FFF7F0FF10BD000010B5802223
:10133000084C12022100084800F0DFF98022D20197
:101340002100064800F0D9F9FFF7E8FFFFF7D4FFC6
:1013500010BDC04600080048680100208801002038
:1013600010B5064B1B78002B02D0FFF7B9FF10BD5C
:10137000FFF7DCFF014B01221A70F6E78401002021
:101380000268034B9A4201D0012070470020FCE71D
:101390000064004070B506000C0015000800FFF75F
:1013A000EFFF8000074A8358002B01D0002070BD5A
:1013B000746035602000FFF7E3FF8000014BC650EA
:1013C0000120F4E7A401002030B58BB004000D002B
:1013D000406801F014F86068FFF7D2FF2B03002883
:1013E0001BD1002205920022069201320792190CAD
:1013F00000911B041B0C019302910393431E98411F
:10140000049008920E2309936946606800F041FF3A
:10141000002804D000200BB030BD0E22E2E7606847
:1014200000F0BDFF002802D125810130F3E7002044
:10143000F1E700B589B00A00042304930023059363
:101440000B6803930B7906930532406801AB02A940
:1014500001F006F843425841C0B209B000BD30B5B2
:1014600089B00C0045682800FFF78AFF431E9841A9
:10147000C1B2631D01AA280001F06BF8002802D058
:10148000002009B030BD01AB029A22601B7C2371A1
:10149000E01805300822D21A002102F0CCFD01200C
:1014A000EFE700000FB430B583B006AC20CC00F0FD
:1014B00031FE0100084802F0C7FD01942100280018
:1014C00002F058FE054802F04BFE012003B030BC8C
:1014D00008BC04B01847C0464C51000854510008DD
:1014E00000B583B000F056FB01900A4BDA68012387
:1014F00013406A46D370D378002BF6D1322101A86D
:1015000000F038FB0028F0D16B46D878C0B203B0A9
:1015100000BDC0460020024000B583B000F03AFB99
:1015200001900B4BDA68202313405A1E9341DBB223
:101530006A46D370D378002BF3D1322101A800F092
:1015400019FB0028EDD16B46D878C0B203B000BDBE
:101550000020024010B5FFF7C3FF00280AD1FFF7B3
:10156000DBFF002801D1002010BD034B2022DA60F0
:101570000220F9E70220F7E70020024000280AD005
:10158000016042608360009BC360019B4361029BDA
:101590000361002070470120FCE700B587B00028F8
:1015A00016D00023059302930368039343680193C5
:1015B000049301F0F9F8002801D007B000BD05A997
:1015C00002A801F093FB0028F7D101F005F9F4E738
:1015D0000120F2E7F8B505000F00160001F0E4F86D
:1015E000002816D100247308A34213DD6300FA5AC1
:1015F00000232900012001F04BF9002806D1023513
:101600000134FFF7A7FF0028EDD002E001F00EF94A
:10161000C0B2F8BDF30707D5074A0023290001200F
:1016200001F036F9002802D101F0D6F8F1E701F017
:10163000FDF8C0B2EDE7C046FFFF000070B586B010
:1016400004000D00002835D0002902D1012006B089
:1016500070BD01F0A9F8002801D00120F7E701F0E2
:10166000C5F8002801D00120F1E701F003FA061EB9
:1016700022D1AE4212D2F300E3181A6804921B7909
:101680006A46137508230093684601F0D3FA0028D0
:1016900002D10136F6B2ECE70120D8E701F0BAF842
:1016A000002801D00120D2E701F096F80028CED022
:1016B0000120CCE70120CAE70120C8E7F8B5050002
:1016C0000F001600002916D0002400E01E00FFF7CE
:1016D00041FF00280ED12B881A021B0A13439BB22C
:1016E00002356200BA181380013424B2731E9BB213
:1016F000002EEBD1F8BD0120FCE710B5040001601D
:10170000828000230376037400F044FA6061A188AC
:101710002068002201F00AFC10BD10B50400037E11
:10172000002B08D0037C002B0ED01430A16800F0F1
:1017300021FA002800D110BD00232374A18820685D
:10174000002201F0F3FBF6E71430E16800F012FA32
:101750000028F0D001232374A1882068012201F021
:10176000E5FBE8E710B504008160C2600123037661
:1017700000F010FA606110BD10B500230374037609
:1017800081880068002201F0D1FB10BDBFF34F8FAC
:10179000034B044ADA60BFF34F8FC046FDE7C046F3
:1017A00000ED00E00400FA050120704701207047B9
:1017B00010B5040000F0C0FC6071030AA371030CB3
:1017C000E371000E207204232371012010BD70B557
:1017D000040000F0A5FC050000F0A8FC65712B0AD0
:1017E000A3712B0CE3712D0E25726072030AA37294
:1017F000030CE372000E207308232371012070BDD7
:1018000010B5040005300822034902F00BFC082340
:101810002371012010BDC046E407010810B5040083
:1018200005300822034902F0FDFB08232371012043
:1018300010BDC046F40701080300080006221A7113
:101840003F325A710D329A71DA714F2119725A7200
:101850009872704770B584B005002549F8231B02C3
:10186000C818082202F0D0FB002822D1F822120268
:101870002049002000F05AF906006C792406AB7963
:101880001B041C43EB791B021C432B7A1C430100F5
:101890001948FFF707FE21001848FFF703FEA6428C
:1018A0000DD01748FFF7FEFD13212800FFF7C4FFF6
:1018B00003E014212800FFF7BFFF04B070BD6846A5
:1018C000104B020052CB52C21B6813600221FFF77B
:1018D000B5FE002803D100232B710120EDE70A4853
:1018E000FFF7E0FD0A212800FFF7A6FFE5E7C04665
:1018F000E407010800080108585100086C5100086D
:1019000080510008345100089C510008F8B50400CB
:101910000579012D23D941790902837919431F4B98
:101920001E687618023DEDB20571AA191C4B9A4249
:101930001DD8F3071BD4C71D2A003900300002F060
:1019400063FB002807D0154BDB68AAB239003000D2
:10195000984700281AD100232371012015E011486F
:10196000FFF7A0FD11212000FFF766FF0DE0310019
:101970000D48FFF797FD217989190C4A0C48FFF7AC
:1019800091FD11212000FFF757FFF8BD0948FFF72F
:1019900089FD12212000FFF74FFFF6E7B00100207C
:1019A00000000208D4510008F0510008FFFF0108B0
:1019B0000C5200082C52000830B585B00400114DBF
:1019C000114B0293114B0193114B0093114B1F22AA
:1019D00011492800FFF7D2FD2800FFF7DEFD00289F
:1019E00008D00E48FFF75EFD10212000FFF724FF0E
:1019F00005B030BD0A48FFF755FD002323710120D3
:101A0000F6E7C046B0010020BD1600083D160008EC
:101A1000D51500089B150008000801086052000851
:101A20004852000810B54288D10403685B039B0D3F
:101A3000DB00234C2240134343808A0D5202214B8A
:101A400001680B40134303601F4B1A68002A0AD039
:101A50005368002B14D00388DB05DB0D11888B4203
:101A600003D00832F4E7194A0DE0802464001C43D7
:101A70000188490A4B02234303805368984710BDED
:101A8000124A00E008325368002B10D00388DB05AF
:101A9000DB0D11888B42F5D1802464001C43018842
:101AA000490A4B022343038053689847E7E70288BB
:101AB0000133FF33134303800221FFF7BDFEDEE74E
:101AC00007E0FFFFFF01F8FFAC010020885200088B
:101AD00082B0002209E09300114959188020800546
:101AE000844663440968196001322F2AF3D90D4BEB
:101AF000012252429A6200229A629969013211438C
:101B000099619B691A400192019B074B1968032058
:101B1000814319601A6802431A6062B602B07047C6
:101B200000100008001002400000014010B5C04342
:101B30000AE00A784240FF2313409B00054A9B5865
:101B4000000A584022000131541E002AF1D1C0433E
:101B500010BDC046E052000800B583B00190642378
:101B6000012201A9024802F0FCF8019803B000BD6F
:101B7000C801002070B504000D0000F0CBFA236806
:101B8000C01AA84201D8002070BD00F0C3FA20603E
:101B90000120F9E710B500F0BDFA10BD0088C005BE
:101BA000C30DFF20984280414042704710B50F4856
:101BB0000F4B03600823436000238360C02292041C
:101BC000C260F02212030261C022D2034261037696
:101BD00043768376C3760377437700F0B3FA002821
:101BE00000D110BD00F008F9FBE7C046500200200C
:101BF0000064004010B588B004001422002103A83E
:101C000002F019FA2268134B9A4201D008B010BDB5
:101C1000114BD969802080040143D961DA690240FF
:101C20000192019A5A698021C9020A435A615B698B
:101C30000B400293029BC0239B0003930223049357
:101C4000013306930133079303A9044801F0A0F878
:101C5000DCE7C04600640040001002400004004879
:101C600010B58AB01422002105A802F0E4F9204B37
:101C7000596980200003014359615A690240019269
:101C8000019A59698020C003014359615A69024091
:101C90000292029A59698020C002014359615A692F
:101CA00002400392039A5A69802189020A435A61C9
:101CB0005B690B400493049B80210E4C0122890137
:101CC000200001F033F9C02100220902200001F0B8
:101CD0002DF9E0231B0205930123069300230793AC
:101CE000089305A9200001F053F80AB010BDC046C2
:101CF000001002400008004810B51448144B03605F
:101D0000144B4360002383600122C260036143617E
:101D10008361C361036201F00FF900280CD1002137
:101D20000A4801F06FF9002809D10021074801F0A5
:101D300095F9002806D110BD00F05EF8EFE700F03D
:101D40005BF8F2E700F058F8F5E7C04678020020AB
:101D5000005800405D3E302010B588B004001422C9
:101D6000002103A802F067F92268134B9A4201D0C0
:101D700008B010BD114C62698021C9020A4362613A
:101D800063690B400193019BC0231B010393122342
:101D900004930F3B0693023B079303A9084800F006
:101DA000F7FFE2698021C9030A43E261E3690B405E
:101DB0000293029BDCE7C04600580040001002403E
:101DC0000004004810B50848084B03600423436032
:101DD000074BC360074B836001F06AF9002800D10C
:101DE00010BD00F009F8FBE7CC02002000300040F5
:101DF000FF0F0000340C000072B6FEE700B599B08A
:101E0000342200210BA802F016F91022002107A8A5
:101E100002F011F91C220021684602F00CF9092396
:101E20000B93083B0C9312930133149380235B02B2
:101E3000159380231B0316930BA801F075F9002856
:101E400017D107230793053B0893002309930A93AF
:101E5000012107A801F04CFC00280CD101230093BC
:101E600000230293684601F0FBFC002805D119B05D
:101E700000BDFFF7C1FFFFF7BFFFFFF7BDFF000089
:101E800010B500F02BF9FFF7B9FFFFF7E9FEFFF7F8
:101E90008DFEFFF731FFFFF795FF00F077F8FFF7B2
:101EA00019FA024801F038F9F9E7C046CC020020DF
:101EB00082B00A4B996901221143996199690A40DC
:101EC0000092009ADA69802149050A43DA61DB69E8
:101ED0000B400193019B02B07047C04600100240C6
:101EE000FEE7FEE77047704710B500F007F910BD38
:101EF00070B50C001600002504E000E000BF207063
:101F000001350134B542F8DB300070BD70B5160004
:101F1000002405E04D1C0878FFF71EFE013429005F
:101F2000B442F7DB300070BD01204042704780238F
:101F30009B014B60002070470120704700207047D4
:101F400010B503000C4A0D49521A0D4909680029C1
:101F500007D00B490868C318934206D8084A136093
:101F600010BD074907480860F3E702F023F80C2387
:101F7000036001204042F3E700400020000400001D
:101F8000DC020020A00300207047000010B50D48BF
:101F90000D4B036096231B02436000238360C360E4
:101FA00003610C2242618361C361036243620022C8
:101FB000002101F0B7FF002800D110BDFFF71CFF82
:101FC000FBE7C046E00200200038014010B588B0B1
:101FD00004001422002103A802F02DF82268134BFC
:101FE0009A4201D008B010BD114B99698020C00100
:101FF000014399619A6902400192019A5A698021CC
:1020000089020A435A615B690B400293029BB02329
:102010005B0103930223049301330693023B07936E
:10202000902003A9C00500F0B3FEDBE700380140B3
:10203000001002400E488546FFF7A6FF0D480E49E6
:102040000E4A002302E0D458C4500433C4188C4212
:10205000F9D30B4A0B4C002301E013600432A24277
:10206000FBD301F0ADFFFFF733FDFFF709FFFEE7FC
:1020700000400020C000002034010020B8570008B4
:1020800038010020A0030020FEE7000010B5040086
:102090000F4B1978FA208000FFF740F801000D4B34
:1020A0001868FFF73BF800F033FB00280DD1032C34
:1020B00001D901200AE0013000222100404200F055
:1020C000F7FA054B1C60002000E0012010BDC0465F
:1020D000C8000020C4000020CC00002010B5064A33
:1020E000136810210B4313600320FFF7CFFFFFF7A6
:1020F000DFFE002010BDC04600200240034A1168E8
:10210000034B1B785B1813607047C04668030020C0
:10211000C8000020014B18687047C04668030020C3
:10212000014B18687047C046ACF7FF1F014B186899
:102130007047C046B0F7FF1F014B18687047C04694
:10214000B4F7FF1F70B5041E00D1A0E02023C35CCC
:10215000002B1AD02268136801210B431360FFF78C
:10216000D9FF050023685A68D20711D4FFF7D2FFC0
:10217000401B0A28F6D9626A80239B0213436362DC
:1021800020230522E254012070BDFFF733FDE1E773
:102190001A6802218A431A60FFF7BCFF0500236812
:1021A0005A6892070ED5FFF7B5FF401B0A28F6D9EB
:1021B000626A80239B021343636220230522E25458
:1021C0000120E1E7227E012A3ED01A6880218A435D
:1021D0001A60637E012B3CD02268136840218B4338
:1021E0001360A37E012B3AD02268136820218B4311
:1021F0001360E37E012B38D02268136810210B4353
:102200001360237F012B36D02268136808218B438B
:102210001360637F012B34D02268136804218B4341
:102220001360A368E268134322691343626913438E
:102230006268013A21681343CB6100236362203353
:102240000122E25400209FE71A6880210A431A60A5
:10225000BFE72268136840210B431360C1E722687F
:10226000136820210B431360C3E722681368102111
:102270008B431360C5E72268136808210B43136082
:10228000C7E72268136804210B431360C9E70120E4
:102290007AE730B502682023C35C013BDBB2012B37
:1022A00006D9426A8023DB0213434362012030BD1A
:1022B0008024A40010590123184310511F204C6999
:1022C000204083408724A4001059DD4398431051D7
:1022D000C869002818D1103C105928401051C8680E
:1022E000040448680004000C044348694830C000F6
:1022F00084508868040408680004000C044348699A
:102300004830C00010184460C86901281AD0886994
:10231000002832D18124A4001059284010510869A6
:10232000002830D18524A400105905401551096AB0
:1023300001292ED080218900535801208343535016
:102340000020B4E78324A4001059184310510868F2
:10235000040448680004000C044348694830C00085
:10236000845088680404C8680004000C0443486969
:102370004830C00010184460C9E78124A4001059F7
:1023800018431051CBE78524A4001059184310516D
:10239000CDE78720800011580B431350CAE770B572
:1023A00004002023C35CDEB2012B07D0426A8023E5
:1023B0001B03134343620126300070BD1F3302220A
:1023C000C2540268136801218B431360FFF7A2FE19
:1023D000050023685B68DB070DD5FFF79BFE401BFC
:1023E0000A28F6D9626A80239B0213436362202382
:1023F0000522E254E0E7002363620026DCE770B5C3
:1024000004002023C35C022B06D0426A80235B03B6
:1024100013434362012070BD0268136801210B431E
:102420001360FFF777FE050023685A68D2070ED4C1
:10243000FFF770FE401B0A28F6D9626A80239B02D0
:102440001343636220230522E2540120E3E71A6864
:1024500002218A431A6020230122E2540020DAE795
:1024600070B52024045D0568AD68013CE4B2012C20
:1024700068D8E024640525425DD02D0E03242C404D
:102480000125A5401D608B68002B3DD10B685B05C5
:10249000CD682B43250018352D010668AB5123006C
:1024A00018331B010568AC4663440D695D600B7D04
:1024B000012B34D0D3791B06917909040B43517950
:1024C00009020B4311790B432501016849198D312C
:1024D000FF310B60D3781B06917809040B435178C8
:1024E00009020B43127813430268944665442A009C
:1024F0008932FF321360026818342401A358012185
:102500000B43A350002023E04D68ED002B43CD6822
:102510002B43250018352D010668AB51BFE723007A
:1025200018331B0101688C4663445D6880214900B3
:1025300029435960BEE7426A80239B0313434362E9
:10254000012005E0426A8023DB021343436201203D
:1025500070BD70B52024045D013CE4B2012C00D9AB
:102560009EE000290AD10468E468A40711D1426AF8
:1025700080239B0313434362012097E0046824698E
:10258000A40706D1426A80239B03134343620120C0
:102590008CE00C001B3424010568655904242C4090
:1025A000946066D10C001B34240105686459640DE5
:1025B00014600C001B34240105686659022535405F
:1025C000D56005682C19646824075AD5082414615D
:1025D0000C001B34240105682D196E68360AFF258E
:1025E000354095610568AC4664446468240C5461C8
:1025F0000A010468A418B934FF3424681C70046804
:10260000A418B934FF342468240A5C700468A41840
:10261000B934FF342468240C9C700468A418B934BD
:10262000FF342468240EDC700468A418BD34FF3421
:1026300024681C710468A418BD34FF342468240A7B
:102640005C710468A418BD34FF342468240C9C71A8
:102650000468A4466244BD32FF321268120EDA7179
:10266000002917D10268D36820310B43D3600020C2
:102670001CE00C001B34240105686459E408546014
:1026800097E70C001B3424012D196D680F242C4092
:1026900014619DE70268136920210B431361E6E78B
:1026A000426A8023DB0213434362012070BD0000B5
:1026B00070B5002811DB8308134EC0339B009D5971
:1026C00003242040C000FF2214008440A543890158
:1026D0000A4082402A439A5170BD0F230340083BB1
:1026E0009B0806339B00094A944663445C680322B6
:1026F0001040C000FC3215008540AC4389010A40FF
:10270000824022435A60E7E700E100E000ED00E08C
:10271000013880235B0498420FD2094A506009486F
:10272000036A1B021B0AC02109060B430362002334
:10273000936007331360002070470120FCE7C04618
:1027400010E000E000ED00E010B5054B0022DA617A
:10275000044A1369012423431361018010BDC0465C
:1027600070030020002002400D4BDA6810210B009E
:102770001340114205D00B4AD3690E390B43D36184
:102780001023074AD268520706D50649CA690120B4
:102790000243CA6104221343014AD3607047C04612
:1027A0000020024070030020084B1B691B0609D55E
:1027B000064B074A5A60074A5A601B691B0603D436
:1027C000002000E0002070470120FCE700200240CC
:1027D00023016745AB89EFCD034A136980210B4381
:1027E000136100207047C04600200240064B1B6961
:1027F0009B0506D4044B054A9A60054A9A6000205E
:1028000070470120FCE7C0460020024023016745D5
:10281000AB89EFCD034A136903490B4013610020D4
:102820007047C04600200240FFFDFFFF014BD86902
:102830007047C0467003002070B50400FFF76AFCC3
:102840000500124BDB68DB070AD5631CF9D0002CAE
:1028500004D0FFF75FFC401BA042F2D903200FE039
:102860000A4BDB689B0602D5084B2022DA60074B37
:10287000DB68DB0605D4054BDB685B0701D4002071
:1028800070BDFFF771FF0120FAE7C046002002404B
:10289000F8B5CE46474680B505000E0090461F00AD
:1028A000224B1B7E012B3ED0204B01221A76204862
:1028B000FFF7C2FF041E2FD1012D07D0022D02D039
:1028C000042399461DE0022399461AE00123994604
:1028D00017E02022D21A390091400A004146D9401F
:1028E000114389B28019FFF72FFF1148FFF7A4FFAA
:1028F000104A136901218B43136100280CD1013464
:10290000E4B24C4508D260002301202252429A18BA
:10291000DFD43900D140E4E7044B00221A76C0BC72
:10292000B946B046F8BD0220F9E7C0467003002062
:1029300050C3000000200240064B0022DA61064B23
:102940001A6904210A431A611A693C310A431A615F
:102950007047C0467003002000200240014B186AF7
:102960007047C04600200240064BDB6906221A422F
:1029700003D05B0703D5CC2000E0AA207047BB2022
:10298000FCE7C0460020024070B504001348FFF782
:1029900053FF002800D070BD114B0022DA61114DA9
:1029A0002B69202633432B612B69403213432B6163
:1029B0000A48FFF741FF2B69B3432B610028EAD196
:1029C0002B69103E33432B61A4B2074B1C80034894
:1029D000FFF732FF2B69B3432B61DCE750C30000E4
:1029E000700300200020024000F8FF1F70B50400B3
:1029F0000C48FFF721FF002800D070BD0A4B0022D1
:102A0000DA610A4D2B69102633432B617838204355
:102A1000C0B2074B58800348FFF70EFF2B69B34342
:102A20002B61EAE750C30000700300200020024041
:102A300000F8FF1FF8B504000D000B48FFF7FCFE7F
:102A4000002800D0F8BD094B0022DA61084E336936
:102A500010273B433361ADB225800348FFF7ECFEFE
:102A60003369BB433361EDE750C3000070030020BE
:102A70000020024070B5FFF777FFC5B20E48FFF7A0
:102A8000DBFE002800D070BD0C4B0022DA610C4C3C
:102A90002369202633432361236940321343236192
:102AA0000548FFF7C9FE2369B34323610028EAD133
:102AB0002800FFF769FFE6E750C30000700300201D
:102AC00000200240F8B50400FFF748FFA043FF25AF
:102AD00007002F40060A2E40030C1D40040E234819
:102AE000FFF7AAFE002800D0F8BD214B0022DA61D2
:102AF000FFF7C0FF0028F7D11E4A136910210B43CE
:102B00001361FF2F11D1002801D1FF2E15D100280C
:102B100001D1FF2D19D1002801D1FF2C1DD1154A5B
:102B2000136910218B431361DEE7134A13891F4099
:102B300017810E48FFF780FEE5E70F4A53891E40D4
:102B400056810A48FFF778FEE1E70B4A93891D405A
:102B500095810648FFF770FEDDE7074BD8892040D6
:102B6000D8810248FFF768FED9E7C04650C300008D
:102B7000700300200020024000F8FF1FF8B5040099
:102B8000FFF7ECFE0443FF2527002F40260A2E40C6
:102B9000230C1D40240E2348FFF74EFE002800D0D2
:102BA000F8BD214B0022DA61FFF764FF0028F7D15E
:102BB0001E4A136910210B431361FF2F11D1002806
:102BC00001D1FF2E15D1002801D1FF2D19D10028E8
:102BD00001D1FF2C1DD1154A136910218B431361BC
:102BE000DEE7134A13891F4017810E48FFF724FEC2
:102BF000E5E70F4A53891E4056810A48FFF71CFE3D
:102C0000E1E70B4A93891D4095810648FFF714FEC2
:102C1000DDE7074BD8892040D8810248FFF70CFE3A
:102C2000D9E7C04650C300007003002000200240D6
:102C300000F8FF1F10B50400224B1B7E012B3FD074
:102C40000123204A1376026813420FD04368012BF8
:102C500008D08068FFF792FF002808D0194B0022A7
:102C60001A7610E08068FFF72DFFF5E70120236852
:102C70009B0709D423685B070FD423681B0715D46F
:102C8000104B00221A7610BD207BFFF77DFE002836
:102C9000F0D00C4B00221A76F5E7607BFFF7A6FE1A
:102CA0000028EAD0074B00221A76ECE7217D206944
:102CB000FFF7C0FE0028E3D0024B00221A76E2E7BD
:102CC0000220E0E770030020064B0022DA61064B89
:102CD0001A6902210A431A6158611A693E310A438E
:102CE0001A617047700300200020024070B5050093
:102CF0000E00244B1B7E012B41D0224B01221A7661
:102D00000368012B22D02048FFF796FD002831D11F
:102D100001235B4233606C680130AB68DB026A6898
:102D200094466344A34226D92000FFF7CDFF1648FE
:102D3000FFF782FD154A136902218B4313610028B6
:102D400016D180231B019C466444E6E70E48FFF73A
:102D500073FD002801D001200DE0FFF7EDFD0A48CA
:102D6000FFF76AFD094A136904218B43136102E0EE
:102D7000346000E00120034B00221A7670BD02206F
:102D8000FCE7C0467003002050C300000020024052
:102D9000F0B583B0002357E084685F000326BE408F
:102DA000B4432600CC68BC403443846044689443F8
:102DB0004A681609012232409A402243426053E099
:102DC000DC080834A400265805321A4092000F2768
:102DD0009740BE430F6997403A003243225057E074
:102DE000042600E00026A64034003C430232920054
:102DF000474E9451474A9468EA432600AE434F68D1
:102E0000FF0201D52C432600424CA660E468260050
:102E100016404F68BF0201D52C4326003D4CE660AA
:102E20006468260016404F68BF0301D52C43260076
:102E3000384C6660246822404E68F60301D52A00AB
:102E40002243344C226001330C682200DA405CD00B
:102E500001229A40250015401442F4D003244E6804
:102E60003440013C012C97D903224C682240032AAC
:102E700009D0C2685E000324B440A24314008A68EB
:102E8000B2402243C26003224C682240022A97D0FB
:102E900004685E0003221700B740BC434F683A4005
:102EA000B24022430260C02292024C681442CAD04F
:102EB000194CA66901221643A661A4692240019219
:102EC000019A9A08941CA400114EA75903261E408B
:102ED000B4000F26A640B7439026F605B04281D035
:102EE0000E4EB0420BD00E4EB0420AD00D4EB04244
:102EF00009D00D4EB04200D172E7052673E70126D6
:102F000071E702266FE703266DE703B0F0BDC04608
:102F1000000001400004014000100240000400488D
:102F200000080048000C004800100048002A01D0AA
:102F3000816170478162FCE710B5041E59D04123BE
:102F4000C35C002B43D041232422E254226813683F
:102F500001218B4313602268274B61680B4013618A
:102F60002268936825490B409360E368012B34D0B5
:102F7000226884231B02A1680B439360E368022B41
:102F800032D0226851681E4B0B4353602268D368CD
:102F90001A490B40D360236962691343A269120284
:102FA00021681343CB602268E369216A0B431360F5
:102FB0002268136801210B431360002363644122DC
:102FC0001F31A15423630132A354002010BD4033AC
:102FD0000022C254FEF7C0FEB5E7226880231B0220
:102FE000A1680B439360C9E72368802212015A60ED
:102FF000C7E70120EAE7C046FFFFFFF0FF7FFFFFC2
:1030000000800002F0B54123C35C202B20D1203387
:10301000C35C012B1ED040240122025541252423EC
:1030200043550668336893433360066833680A4F34
:103030003B403360066833681943316001680B68B0
:1030400013430B6020234355002303550020F0BD9C
:103050000220FCE70220FAE7FFEFFFFFF0B5412373
:10306000C35C202B1ED12033C35C012B1CD0402419
:1030700001220255412524234355066833689343B2
:10308000336006683368094F3B40090219433160D9
:1030900001680B6813430B6020234355002303553D
:1030A0000020F0BD0220FCE70220FAE7FFF0FFFF5E
:1030B00070B5041E28D00368144A1A600368144AC5
:1030C0001A60036842685A60036882689A60FFF772
:1030D00021F805002368DA6852070AD0FFF71AF8CA
:1030E000401B2728F6D92368DB685B07F2D0032052
:1030F0000BE01969E268914202D01A61002004E0F5
:10310000044A1A60002000E0012070BDCCCC000011
:1031100055550000AAAA00000368024A1A60002060
:103120007047C046AAAA000070B582B0041E00D144
:103130007FE20368DB072BD5B34B5A680C2313409F
:10314000042B1DD0B04B5A680C231340082B0ED013
:103150006368012B41D0002B56D1AB4B1A68AB49A9
:103160000A401A601A68AA490A401A603BE0A64B56
:103170005B68C02252021340802252029342E7D180
:10318000A14B1B689B0303D56368002B00D153E25E
:1031900023689B0777D59C4B5B680C221A4262D050
:1031A000994B5A680C231340082B53D0E368002B2B
:1031B00000D18AE0944A136801210B431360FEF7A3
:1031C000A9FF0500904B1B689B0775D4FEF7A2FF73
:1031D000401B0228F6D903202CE28B4A1168802379
:1031E0005B020B4313606368002B25D0FEF792FF50
:1031F0000500854B1B689B03CAD4FEF78BFF401B61
:103200006428F6D9032015E2052B09D07E4B1A68F5
:103210007E490A401A601A687D490A401A60E2E74E
:10322000794B19688022D2020A431A6019688022F9
:1032300052020A431A60D6E7FEF76CFF0500724B94
:103240001B689B03A4D5FEF765FF401B6428F6D9D5
:103250000320EFE16C4B5B68C022520213408022D6
:1032600012029342A2D1684B1B689B0703D5E36807
:10327000012B00D0E2E164490B68F82293432269F4
:10328000D20013430B6023681B0744D5E369002B6E
:103290002ED05D4A536A01210B435362FEF73AFF79
:1032A0000500594B5B6A9B0735D4FEF733FF401B83
:1032B0000228F6D90320BDE153490B68F822934355
:1032C0002269D20013430B60DDE74F4A13680121E6
:1032D0008B431360FEF71EFF05004B4B1B689B07DB
:1032E000D1D5FEF717FF401B0228F6D90320A1E134
:1032F000454A536A01218B435362FEF70BFF0500D9
:10330000414B5B6A9B0706D5FEF704FF401B022872
:10331000F6D903208EE123685B0700D480E03A4BA6
:10332000DB69DB001DD4384AD169802040050143A8
:10333000D161D36903400193019B0125354B1B6883
:10334000DB0510D5A368012B21D0002B36D12E4BE5
:103350001A6A01218A431A621A6A03318A431A627D
:103360001AE00025EAE72B4A116880235B000B4333
:103370001360FEF7CFFE0600264B1B68DB05E1D489
:10338000FEF7C8FE801B6428F6D9032052E11E4ACE
:10339000136A01210B431362A368002B24D0FEF7AC
:1033A000B9FE0600184B1B6A9B0737D4FEF7B2FE26
:1033B000801B194B9842F5D903203BE1052B09D01E
:1033C000114B1A6A01218A431A621A6A03318A432D
:1033D0001A62E1E70C4B1A6A04210A431A621A6A5C
:1033E00003390A431A62D7E7FEF794FE0600064B3C
:1033F0001B6A9B0712D5FEF78DFE801B064B984279
:10340000F5D9032016E1C04600100240FFFFFEFF81
:10341000FFFFFBFF0070004088130000012D39D032
:103420002368DB0610D56369012B39D0053357D1EA
:10343000894A536B04218B435363536BF4318B43A1
:10344000A169C9000B43536323689B066ED5824B69
:103450005A680C2313400C2B60D07F4B5A680C2306
:103460001340082B53D0236A002B7ED07A4A516B2D
:1034700080235B020B435363FEF74CFE0500764B43
:103480005B6B9B0352D4FEF745FE401B0228F6D926
:103490000320CFE0704AD36970490B40D361BFE786
:1034A0006D4B5A6B04210A435A635A6B03390A4322
:1034B0005A63FEF72FFE0500674B5B6B9B0706D434
:1034C000FEF728FE401B0228F6D90320B2E062492D
:1034D0004B6BF8229343A269D20013434B63B3E7CB
:1034E0005D4B5A6B04210A435A635A6B03398A4372
:1034F0005A63FEF70FFE0500574B5B6B9B07A3D586
:10350000FEF708FE401B0228F6D9032092E0524B3A
:103510005B68C022520213409342A4D14E4B5B6BB6
:103520009B0303D5236A012B00D089E0636A002B3B
:1035300000D187E0484A51680C220A40082A60D02E
:10354000022B25D0444A136845490B401360FEF70F
:10355000E1FD0400404B1B689B0150D5FEF7DAFDEE
:10356000001B0228F6D9032064E03B4A536B3D4917
:103570000B405363FEF7CEFD0500374B5B6B9B039F
:10358000D4D5FEF7C7FD401B0228F6D9032051E031
:10359000314A136832490B401360FEF7BBFD05004A
:1035A0002D4B1B689B0106D5FEF7B4FD401B02287E
:1035B000F6D903203EE0284BDA6A0F218A43216BBB
:1035C0000A43DA625A6828490A40E16AA06A01435C
:1035D0000A435A601968802252040A431A60FEF7AF
:1035E00099FD04001C4B1B689B0106D4FEF792FD5D
:1035F000001B0228F6D903201CE000201AE000205E
:1036000018E0012B20D0144B5A68D96AC0235B0202
:103610001340A06A834219D10F230B40216B8B42C8
:1036200016D1F0239B031A40E36A9A4212D100207C
:1036300000E0012002B070BD0120FBE70120F9E7A6
:103640000120F7E70020F5E70120F3E70120F1E78B
:103650000120EFE70120EDE700100240FFFFFFEF40
:10366000FFFFFFFEFFFFFEFFFF7FC2FF10B51A4BFB
:103670005A680C231340082B07D00C2B29D0042B9D
:1036800001D0164810BD1648FCE7910C0F231940D5
:103690001448445C1049C96A0B401349C95CC023F3
:1036A0005B021A4080235B029A4208D0C0235B026F
:1036B0009A4209D00948FDF731FD6043E2E7084826
:1036C000FDF72CFD6043DDE70848FDF727FD60436B
:1036D000D8E70648D6E7C0460010024000127A003C
:1036E000001BB700F856000808570008006CDC0201
:1036F00070B504000D00002800D186E0474B1A6821
:10370000012313408B420AD244490B6801229343A0
:103710002B430B600B681A40AA4200D077E0236865
:103720009A070ED55B0705D53D4A5168E023DB00BB
:103730000B4353603A4A5368F0218B43A1680B4313
:1037400053602368DB0735D56368012B09D0022B52
:1037500024D0032B28D0324A1268920705D40120C6
:1037600052E02F4A1268920353D52D494A6803202C
:10377000824313434B60FEF7CDFC0600284B5B6889
:103780000C221A4063689B009A4213D0FEF7C2FCD9
:10379000801B244B9842F1D9032035E0204A12685F
:1037A0009201E2D401202FE01D4A526B9203DCD437
:1037B000012029E0194B1A6801231340AB4209D9B3
:1037C00016490B68012293432B430B600B681A4088
:1037D000AA4220D123685B0706D5114A53681249D3
:1037E0000B40E1680B435360FFF740FF0C4B5A68F6
:1037F00012090F2313400D4AD35CD8400C4B1860BC
:103800000320FEF743FC002070BD0120FCE70120EF
:10381000FAE70120F8E70120F6E7C0460020024061
:103820000010024088130000FFF8FFFFE056000878
:10383000C4000020014B18687047C046C400002037
:1038400010B5FFF7F7FF044B5A68120A072313401D
:10385000024AD35CD84010BD00100240F056000868
:1038600070B582B004000368DB0337D54C4BDB69CD
:10387000DB0067D44A4AD169802040050143D16109
:10388000D36903400193019B0125464B1B68DB056F
:103890005AD5434B1A6AC0239B00110019401A42A3
:1038A00013D0626813408B420FD03D4B186A3E4ADA
:1038B00002401E6A8021490231431962196A3B4E57
:1038C000314019621A62C30752D4354A136A364925
:1038D0000B4061680B431362012D58D02368DB074E
:1038E00006D52F4A136B03218B43A1680B43136347
:1038F00023689B0706D52A4A136B2D490B40E168C4
:103900000B43136323689B0606D5254A136B1021CE
:103910008B4321690B43136323689B0306D5204A1D
:10392000136B80218B43A1690B43136323685B05F1
:1039300032D51B4A136B40218B4361690B431363E0
:1039400000202AE00025A0E7164A116880235B00CA
:103950000B431360FEF7DEFB0600124B1B68DB0512
:1039600097D4FEF7D7FB801B6428F6D9032014E018
:10397000FEF7D0FB06000A4B1B6A9B07A5D4FEF797
:10398000C9FB801B0B4B9842F5D9032005E0D36996
:1039900009490B40D361A1E7002002B070BDC046C9
:1039A0000010024000700040FFFCFFFFFFFFFEFF21
:1039B000FFFFFCFF88130000FFFFFFEF10B5EFF3E0
:1039C000108C012282F3108801680B68124C23408E
:1039D0000B608CF31088EFF3108C82F31088016871
:1039E0008B6893438B608CF31088036E012B06D099
:1039F00080232022C25000230366836610BDEFF3AC
:103A0000108183F31088026813683234FF34A343B3
:103A1000136081F31088EBE7DFFEFFFF10B50400B1
:103A200083680269134342691343C26913430168FF
:103A30000A686448024013430B6022685368624975
:103A40000B40E1680B435360226AA3691A43216863
:103A50008B685E48034013438B6023685C4A934243
:103A60000AD05C4A934238D05B4A93425FD05B4AAB
:103A700093424AD010230BE0594B1A6B0323134097
:103A8000022B44D025D8002B43D0012B43D1033344
:103A9000E0698022120290424BD0042B00D189E0D1
:103AA00077D8002B00D17EE0022B70D14D4863689F
:103AB0005B0818186168FDF731FB0200103A4A4BA9
:103AC0009A4200D97BE023680004000CD8600020F3
:103AD00065E0032B21D1013BDAE7414B1B6BC02290
:103AE0009202134080229202934218D007D8002BF2
:103AF00017D080225202934215D10423C8E7C02276
:103B00009202934211D10223C2E70023C0E70823A7
:103B1000BEE70023BCE71023BAE71023B8E7082369
:103B2000B6E70023B4E71023B2E71023B0E7002381
:103B3000AEE7042B28D01DD8002B1FD0022B17D1A5
:103B40002848400063685B08C0186168FDF7E6FA22
:103B50000200103A244B9A422FD882B20F239A4384
:103B60004008083B184010432368D860002016E046
:103B7000012014E0082BE4D0012010E0FFF760FEE4
:103B80000028DED100200AE0FFF770FDF8E70120F1
:103B900005E0082B02D18020000288E701200023E5
:103BA000A366E36610BDFFF74BFE002800D07EE75A
:103BB0000020F4E7FFF75AFDF7E70120EFE70120C7
:103BC000EDE7C046F369FFEFFFCFFFFFFFF4FFFF14
:103BD000003801400044004000480040004C0040D4
:103BE0000010024000127A00EFFF0000436ADB077A
:103BF00006D5026853682C490B40816A0B43536019
:103C0000436A9B0706D50268536828490B40C16A7E
:103C10000B435360436A5B0706D502685368244927
:103C20000B40016B0B435360436A1B0706D50268C8
:103C3000536820490B40416B0B435360436ADB06DA
:103C400006D5026893681C490B40816B0B43936057
:103C5000436A9B0606D50268936818490B40C16BFE
:103C60000B439360436A5B060BD5026853681449A3
:103C70000B40016C0B43536080235B03026C9A4240
:103C80000AD0436A1B0606D5026853680D490B40EB
:103C9000816C0B4353607047026853680A490B40BC
:103CA000416C0B435360ECE7FFFFFDFFFFFFFEFF9E
:103CB000FFFFFBFFFF7FFFFFFFEFFFFFFFDFFFFFC8
:103CC000FFFFEFFFFFFFF7FFFFFF9FFFF8B5CE46B7
:103CD000474680B506000D0017009946089B984698
:103CE0003368DC692C40641B63425C41BC422FD1C9
:103CF00043460133F4D0FEF70DFA4B46C01A404557
:103D00002BD84346002B2AD033681A685207E7D5D0
:103D1000DA69120710D4DA691205E1D5802212019E
:103D20001A623000FFF74AFE84232022F2500C3B37
:103D30000022F25403200CE008241C623000FFF73C
:103D40003DFE8423F4500C3B0022F254012000E09D
:103D50000020C0BCB946B046F8BD0320F9E70320F7
:103D6000F7E7F0B5C64600B582B004000D009046F6
:103D70001E00C36F202B62D1002965D0002A65D0B8
:103D800080235B0182689A4204D10369002B01D130
:103D9000CB075DD484230022E250633BE367FEF748
:103DA000B9F9070050234246E2520233E25280231F
:103DB0005B01A2689A4202D0002398461AE0236968
:103DC000002B02D00023984614E0A846002511E0FD
:103DD0002023E367032033E043461B88DB05DB0D2C
:103DE0002268138502239C46E0445223E25A013A9A
:103DF00092B2E2525223E35A9BB2002B0FD00096AC
:103E00003B00002280212000FFF760FF0028DFD167
:103E1000002DE1D02B78226813850135E5E7009667
:103E20003B00002240212000FFF750FF002802D174
:103E30002023E36704E02023E367032000E002205F
:103E400002B080BCB846F0BD0120F9E70120F7E7D9
:103E50000120F5E730B583B0040084230022C2506E
:103E6000FEF758F905002268126813070FD423687B
:103E70001B685B0729D42023E3678022A35000231B
:103E800023666366083AA354002003B030BD802146
:103E9000224B00930300002289032000FFF716FF46
:103EA0000028E4D0EFF31081012383F31088226807
:103EB000136880208343136081F310882023E36715
:103EC00058330022E2547D38DFE78021134B009302
:103ED0002B000022C9032000FFF7F8FE0028CAD0FB
:103EE000EFF31080012282F3108821680B680C4DDB
:103EF0002B400B6080F31088EFF3108082F3108862
:103F000021688B6893438B6080F3108880231F3275
:103F1000E250083B0022E2540320B6E7FFFFFF0116
:103F2000DFFEFFFFF8B504000F0016001D0000289B
:103F300039D0C36F002B2CD02423E3672268136889
:103F400001218B4313602000FFF768FD01281FD07B
:103F5000636A002B23D1226891688023DB010B4325
:103F6000936023689968114A11400F439F6076055A
:103F70002D04354323681E680D4A164035431D60E5
:103F80002268136801210B4313602000FFF762FFD2
:103F9000F8BD78330022C254FEF718F8CCE72000B1
:103FA000FFF724FED7E70120F2E7C046FF7FFFFFBF
:103FB000FFFF00FC014B18687047C046D00000208E
:103FC00070B500260C4D0D4C641BA410A64209D1FF
:103FD000002601F0A3F80A4D0A4C641BA410A64267
:103FE00005D170BDB300EB5898470136EEE7B3003A
:103FF000EB5898470136F2E7B0570008B057000871
:10400000B0570008B457000830B500240139A24267
:1040100001D1002005E0035D01340D5DAB42F6D017
:10402000581B30BD002310B59A4200D110BDCC5CA6
:10403000C4540133F8E703008218934200D170475B
:1040400019700133F9E700000FB40B4B13B51C686E
:10405000002C05D0A369002B02D1200000F09CFAAF
:1040600005AB2000049AA168019300F0AFFC16BCD8
:1040700008BC04B01847C046D000002070B5050049
:104080000E00002804D08369002B01D100F084FACF
:10409000AB69AC68002B02D1280000F07DFA2D4BF3
:1040A0009C4222D16C68636EDB0705D4A3899B0513
:1040B00002D4A06D00F011FBA3891B0702D5236970
:1040C000002B29D12100280000F0C0F8002823D0BF
:1040D00001256D42636EDB0705D4A3899B0502D4DD
:1040E000A06D00F0FBFA280070BD1B4B9C4201D173
:1040F000AC68D8E7194B9C42D5D1EC68D3E70136C0
:10410000A360002B04DAA2699A4216DC0A2914D0B3
:1041100023685A1C22601970A3683178013B00297A
:10412000EDD1A360002B0FDA280022000A3100F045
:1041300037F80A25431CCDD1CAE72200280000F039
:104140002FF8431CE8D1C3E70A2523685A1C2260D4
:104150001D70BFE73C5700085C5700081C5700085B
:1041600010B5034B01001868FFF788FF10BDC0466B
:10417000D0000020094B70B51C6805000E00002C13
:1041800005D0A369002B02D1200000F005FA33000E
:104190002A002000A16800F019FC70BDD0000020AA
:1041A000F8B505000E001400002804D08369002B28
:1041B00001D100F0F1F9224B9C422ED16C68A36929
:1041C000A360A3891B0732D52369002B2FD0236856
:1041D0002269F7B2981A6369F6B2834205DC2100BE
:1041E000280000F037F9002827D1A3680130013BEF
:1041F000A36023685A1C22601F706369834204D045
:10420000A389DB0707D50A2E05D12100280000F07D
:1042100021F9002811D13000F8BD0A4B9C4201D190
:10422000AC68CCE7084B9C42C9D1EC68C7E72100D9
:10423000280000F00BF80028C9D001267642EAE7F2
:104240003C5700085C5700081C570008374B70B5F6
:104250001D6806000C00002D05D0AB69002B02D1B3
:10426000280000F099F9324B9C420FD16C680C2366
:10427000E25E93B211072DD4D90611D4092301208F
:10428000336037331343A381404270BD294B9C42B6
:1042900001D1AC68EBE7284B9C42E8D1EC68E6E73B
:1042A0005B0713D5616B002908D023004433994282
:1042B00002D0300000F080FA002363632422A38937
:1042C0009343A38100236360236923600823A289A9
:1042D0001343A3812369002B0BD1A0218022A38942
:1042E000890092000B40934203D02100300000F07F
:1042F0001FFA0C22A35E01201A0099B20240034269
:104300000FD00022A26062695242A261002022699D
:104310008242BAD10A06B8D540221343A38101389C
:10432000B3E7880700D46269A260EFE7D0000020FD
:104330003C5700085C5700081C570008F7B58B89EC
:1043400005000C001A075FD44A68002A04DC0A6CD6
:10435000002A01DC0020FEBDE76A002FFAD000220F
:1043600080212E682A601A0049010A400B4234D08D
:10437000606DA3895B0706D56368C01A636B002B69
:1043800001D0236CC01A0200216A00232800E76ACA
:10439000B847A189431C06D12B681D2B31D82C4A64
:1043A000DA40D3072DD50023636023692360CB0453
:1043B00005D5431C02D12B68002B00D16065616BD1
:1043C0002E600029C6D023004433994202D0280031
:1043D00000F0F2F900206063BDE701232800216AA4
:1043E000B847431CC5D12B68002BC2D01D2B01D070
:1043F000162B01D12E60ADE74023A2891343A38180
:10440000A9E740230B43FAE70F69002FA2D00A68FF
:104410000F60D21B019200229B0700D14A69A26063
:10442000019B002B00DC95E73A002800019B216AE4
:10443000A66AB047002806DC40230120A28940423A
:104440001343A38187E7019B3F181B1A0193E7E7FA
:10445000010040200B6970B505000C00002B02D153
:104460000025280070BD002804D08369002B01D1ED
:1044700000F092F8144B9C421BD16C680C22A35E96
:10448000002BEDD0626ED20704D49B0502D4A06D40
:1044900000F023F928002100FFF750FF636E0500AC
:1044A000DB07DED4A3899B05DBD4A06D00F016F9F1
:1044B000D7E7064B9C4201D1AC68DFE7044B9C4236
:1044C000DCD1EC68DAE7C0463C5700085C570008CE
:1044D0001C570008002310B504000360436083608C
:1044E000818143661900C2810361436183610822AF
:1044F0005C30FFF7A0FD054B24626362044BA362AE
:10450000044BE362044B236310BDC046694F0008AF
:10451000914F0008C94F0008F54F000810B5024937
:1045200000F0BAF810BDC0465544000870B56825C3
:104530004A1E55430E002900743100F0A9F9041EEB
:1045400008D000212A00016046600C30A06068326B
:10455000FFF771FD200070BD10B5024800F0BDF8F6
:1045600010BDC0469103002010B5024800F0B6F817
:1045700010BDC0469103002010B5024800F0ADF810
:1045800010BDC0469203002010B5024800F0A6F806
:1045900010BDC0469203002013B50400FFF7ECFFE6
:1045A000A369002B02D0FFF7EFFF13BDA364E36400
:1045B0002365134B134A1B68A2620193A34201D1E6
:1045C0000123A361200000F01FF86060200000F0CC
:1045D0001BF8A060200000F017F800220421E06022
:1045E0006068FFF777FF01220921A068FFF772FFDB
:1045F00002221221E068FFF76DFF0123A361D2E7D9
:10460000185700081D450008F8B50700FFF7A4FF7C
:104610001F4B1E68B369002B02D13000FFF7BCFFAF
:104620004836B4687368013B04D53368002B22D048
:104630003668F6E70C22A55E002D1AD12000154B36
:104640005830E360656600F047F8FFF78DFF200003
:10465000082229002560A560656025616561A56166
:104660005C30FFF7E8FC6563A563A564E5642000A2
:10467000F8BD6834D7E704213800FFF757FF041E60
:104680003060D5D1FFF770FF0C233B60EFE7C046E9
:10469000185700080100FFFFF7B5040006000027C7
:1046A000019148346368A5680093009B013B009327
:1046B00004D52468002CF5D13800FEBDAB89012B50
:1046C00008D90E22AB5E013304D029003000019BD3
:1046D000984707436835E8E7704770477047000020
:1046E00070B50E001D000E23C95E140096B000299F
:1046F00008DA0C22B35E00222A601B0611D4802344
:10470000DB000FE06A4600F0A1FC0028F1DBF0239B
:1047100001991B021940054BC9184B4259412960A8
:10472000EDE740230020236016B070BD00E0FFFFDE
:10473000F7B502268B8905000C00334206D0230012
:1047400047332360236101236361F7BD6A4601ABF0
:10475000FFF7C6FF00990700280000F099F800282D
:1047600008D10C22A35E9A05EFD4032293431E4383
:10477000A681E4E70F4BAB628023A289206013433C
:10478000A381009B20616361019B002B0DD0280059
:104790000E23E15E00F06CFC002806D00322A38902
:1047A00093431A0001231343A381A0890743A781E0
:1047B000CBE7C0461D45000870B50500002910D0A4
:1047C0000C1F2368002B00DAE418280000F082FC9C
:1047D0001D4A1368002B05D163601460280000F0A7
:1047E00081FC70BDA34208D9216860188342F3D1CF
:1047F00018685B6841182160EEE71A005B68002BBF
:1048000001D0A342F9D911685018A0420BD12068F9
:104810000918501811608342E0D118685B6841188C
:1048200011605360DAE7A04202D90C232B60D5E770
:1048300021686018834203D118685B6841182160C1
:1048400063605460CAE7C0469403002070B50F4E01
:104850000D0031680400002902D100F073FB3060C4
:104860002900200000F06EFB431C0AD00323C51C66
:104870009D43A84207D0291A200000F063FB431C87
:1048800001D101256D42280070BDC046980300206B
:10489000F7B50322CB1C9343083306001F000C2BF3
:1048A00032D20C27B94231D8300000F013FC324D1F
:1048B0002B681C00002C2ED139003000FFF7C6FFFA
:1048C0000400431C1ED12C682500002D4AD123680A
:1048D0002900E3183000019300F034FB019B834270
:1048E00043D123680337FF1A03239F4308370C2F54
:1048F00000D20C2739003000FFF7A8FF431C34D04A
:104900002368DF19276013E0002BCBDA0C23002586
:1049100033602800FEBD2268D11B20D40B2917D993
:10492000E2192760A34211D12A60636811605360C5
:104930003000250000F0D6FB07220B35231D9543E0
:10494000EA1A9D42E5D05B1BA350E2E75A60ECE710
:104950006268A34201D12A60EAE75A60E8E72300CF
:104960006468A7E72C006D68AFE70C233000336064
:1049700000F0B8FBCDE7C04694030020936810B563
:10498000013B9360002B04DA9469A34207DB0A29F8
:1049900005D01368581C10601970080010BDFFF78F
:1049A000FFFB0100F9E7F8B506000F001400D51869
:1049B000AC4201D1002007E021783A003000FFF737
:1049C000DDFF0134431CF3D1F8BD0000F0B5A1B008
:1049D00006000C001F000392002804D08369002BFE
:1049E00001D1FFF7D9FD8E4B9C421CD17468636ED8
:1049F000DB0705D4A3899B0502D4A06DFFF76DFEEC
:104A0000A3891B0702D52369002B1DD1210030008B
:104A1000FFF71CFC002817D0636EDB070DD50120C3
:104A2000404221B0F0BD7F4B9C4201D1B468DEE72B
:104A30007D4B9C42DBD1F468D9E7A3899B05EED47A
:104A4000A06DFFF74BFEEAE7002308AD6B61203352
:104A50006B761033AB760797039F3B78002B01D022
:104A6000252B4ED1039BFB1A0593039B9F420DD030
:104A7000059B21003000039AFFF795FF431C00D1EE
:104A8000B5E06A69059B944663446B613B78002BF3
:104A900000D1ACE001227B1C0393002352426A60E8
:104AA00004A9543252182B60EB60AB601370AB65F5
:104AB000039B052219785D4800F000FB039B5F1CF7
:104AC000002820D12A68D30604D5532304A95B18F3
:104AD00020211970130704D5532304A95B182B2137
:104AE0001970039B1B782A2B16D00021EB68039FBB
:104AF0003A78781C303A8446092A4FD9002911D1D6
:104B000017E00137A9E7494B2A68C01A01238340FF
:104B100013432B600397CBE7079B191D1B68079175
:104B2000002B01DB0B9304E05B42EB600223134399
:104B30002B603B782E2B0AD17B782A2B37D1079B11
:104B400002371A1D1B680792002B2DDB09930322E5
:104B50003978374800F0B2FA002807D0344B2A6879
:104B6000C01A40238340134301372B6039787B1CE4
:104B7000062230480393297600F0A0FA002845D099
:104B80002D4B002B27D10722079B07339343083374
:104B900007936B69049A9B186B615DE70A214B438D
:104BA00067469B180939A3E701235B42CEE7002340
:104BB0001A0001376B603978781C3039844609292E
:104BC00003D9002BC3D00992C1E70A235A43674691
:104BD0005218093BEFE707AB009322002900300091
:104BE000164B00E000BF0490049B0133D1D1636EEB
:104BF000DB0705D4A3899B0502D4A06DFFF76EFDEA
:104C0000A3895B0600D50AE70D980AE707AB009376
:104C1000220029003000094B00F082F8E3E7C0468B
:104C20003C5700085C5700081C5700087C570008D8
:104C3000825700088657000800000000A7490008B6
:104C4000F7B5150001938A680B690C000090934238
:104C500000DA130022002B6043321278002A01D0C0
:104C600001332B6023689B0602D52B6802332B602F
:104C70002268062317001F401A4227D0230043331F
:104C80001B785A1E93412268920630D42200019963
:104C90000098089E4332B047431C25D00623206865
:104CA0002A68E16800250340042B03D18D1AEB43E9
:104CB000DB171D40A3682269934201DD9B1AED18A2
:104CC0000027BD4220D1002010E00137E3682A68A8
:104CD0009B1ABB42D2DD2200012301990098089E55
:104CE0001932B047431CF0D101204042FEBD3020B4
:104CF000E1184331087021005A1C45310978A21887
:104D0000433202331170C1E7220001230199009858
:104D1000089E1A32B047431CE6D00137D1E70000A5
:104D2000F0B58BB006920A004332079305900492C7
:104D30000A7E0C00109B782A07D8622A09D8002A1C
:104D400000D1C1E0582A00D18CE0260042363270F2
:104D500022E0100063381528F7D8FCF7D5F91600C3
:104D60001F00F6FFF6FFF6FFF6FF1F00F6FFF6FF47
:104D7000F6FFF6FFA80036009A00F6FFF6FFB9002E
:104D8000F6FF3600F6FFF6FF9E0026001A68423650
:104D9000111D1960136833700123A7E008681968B2
:104DA0000A1D05060BD50D681A60002D03DA2D23A8
:104DB000049A6D421370614B0A2703931BE00D6840
:104DC0001A604106F1D52DB2EFE70D681968081D8C
:104DD00018602E0601D50D6803E06D06FBD50D6841
:104DE000ADB2564B082703936F2A00D00237230039
:104DF000002243331A706368A360002B03DB042294
:104E0000216891432160002D02D1049E002B0CD01B
:104E1000049E28003900FCF707FA039B013E5B5C07
:104E200033702B0005009F42F3D9082F09D1236866
:104E3000DB0706D563682269934202DC3023013E1A
:104E40003370049B9B1B2361079B210000930598F3
:104E5000069B09AAFFF7F4FE431C4CD101204042F7
:104E60000BB0F0BD45310A70344A03921A682168CC
:104E700020CA1A60080616D5CB0702D5202319438D
:104E800021601027002DB2D1202322689A4322608E
:104E9000ADE7202209680A432260220078214532CA
:104EA0001170274AE1E74806E6D5ADB2E4E71A6893
:104EB0000D68101D4969186013682E0601D5196028
:104EC00002E06D06FBD519800023049E2361BBE739
:104ED0001A68111D1960166800213000626800F020
:104EE000EDF8002801D0801B606063682361002317
:104EF000049A1370A8E72369320006990598079D64
:104F0000A847431CAAD023689B0715D4099BE068D7
:104F10009842A5DA1800A3E7220001230699059814
:104F2000079E1932B047431C98D00135E368099AAF
:104F30009B1AAB42F0DCE9E70025F7E78D57000844
:104F40009E570008002370B5064D040008002B6032
:104F5000FCF7F6FF431C03D12B68002B00D0236025
:104F600070BDC0469C03002070B50C000E25495F43
:104F700000F0C0F8002803DB636D1B18636570BD8B
:104F8000A389024A1340A381F9E7C046FFEFFFFF60
:104F9000F8B51F008B8905000C001600DB0505D550
:104FA0000E23C95E0022022300F074F8A389054A8B
:104FB00028001340A38132000E23E15E3B0000F085
:104FC0001FF8F8BDFFEFFFFF70B50C000E25495F1D
:104FD00000F060F8A389421C03D1054A1340A38165
:104FE00070BD802252011343A3816065F8E7C0467B
:104FF000FFEFFFFF10B50E23C95E00F015F810BDDE
:1050000070B50400080011001A000023054D2B6044
:10501000FCF77CFF431C03D12B68002B00D02360DE
:1050200070BDC0469C030020002370B5064D0400EF
:1050300008002B60FCF778FF431C03D12B68002B82
:1050400000D0236070BDC0469C030020002370B5D3
:10505000064D0400080011002B60FCF768FF431C9C
:1050600003D12B68002B00D0236070BD9C0300206F
:10507000002370B5064D040008002B60FCF75CFFB0
:10508000431C03D12B68002B00D0236070BDC046A9
:105090009C03002070B50400080011001A000023D2
:1050A000054D2B60FCF74AFF431C03D12B68002BF6
:1050B00000D0236070BDC0469C030020C9B2821896
:1050C000904201D10020704703788B42FBD0013021
:1050D000F6E7000010B50248FFF7FFFA10BDC04622
:1050E0009003002010B50248FFF7F8FA10BDC04643
:1050F0009003002070B50400080011001A0000237E
:10510000054D2B60FCF7F4FE431C03D12B68002BEC
:1051100000D0236070BDC0469C030020F8B5C04697
:10512000F8BC08BC9E467047F8B5C046F8BC08BC41
:045130009E467047E0
:1051340004F8FF1FAA00000006F8FF1F5500000036
:1051440043414E534944410025303864202D20000A
:105154000D000000466C61736820204352432025F3
:105164003038580D0A00000052656D6F7465204395
:10517400524320253038580D0A0000004552524F42
:10518400523A20436865636B73756D206D69736D66
:10519400617463680D0A00004552524F523A20660A
:1051A4006C6173685F6472697665725F7772697443
:1051B400655F646174615F6F7074696F6E5F62795B
:1051C4007465732829206661696C65642E0D0A0074
:1051D4004552524F523A20496E76616C696420619F
:1051E4006464726573730D0A000000004552524FE7
:1051F400523A20577269746520706F696E746572D3
:105204002025640D0A0000004552524F523A20579F
:105214007269746520616464726573732025642007
:105224003E2025640D0A00004552524F523A204652
:105234006C617368207772697465206661696C6556
:10524400640D0A0053746F72616765206172656151
:10525400206572617365640D0A0000004552524F67
:10526400523A204661696C656420746F20657261EE
:1052740073652073746F7261676520617265610D77
:105284000A000000200000008D1700082100000023
:105294001D18000822000000011800082300000067
:1052A400B919000824000000A9170008250000000F
:1052B4000D19000826000000551800082A000000F7
:1052C400AD1700082C000000CF1700082D000000C7
:1052D400B1170008000000000000000000000000FA
:1052E400963007772C610EEEBA51099919C46D07EF
:1052F4008FF46A7035A563E9A395649E3288DB0E4A
:10530400A4B8DC791EE9D5E088D9D2972B4CB6092C
:10531400BD7CB17E072DB8E7911DBF906410B71D09
:10532400F220B06A4871B9F3DE41BE847DD4DA1A42
:10533400EBE4DD6D51B5D4F4C785D38356986C1373
:10534400C0A86B647AF962FDECC9658A4F5C0114EC
:10535400D96C0663633D0FFAF50D088DC8206E3BCA
:105364005E10694CE44160D5727167A2D1E4033CDC
:1053740047D4044BFD850DD26BB50AA5FAA8B53503
:105384006C98B242D6C9BBDB40F9BCACE36CD832F2
:10539400755CDF45CF0DD6DC593DD1ABAC30D92699
:1053A4003A00DE518051D7C81661D0BFB5F4B4219C
:1053B40023C4B3569995BACF0FA5BDB89EB8022899
:1053C4000888055FB2D90CC624E90BB1877C6F2F1E
:1053D400114C6858AB1D61C13D2D66B69041DC7619
:1053E4000671DB01BC20D2982A10D5EF8985B171F2
:1053F4001FB5B606A5E4BF9F33D4B8E8A2C90778A1
:1054040034F9000F8EA8099618980EE1BB0D6A7F37
:105414002D3D6D08976C6491015C63E6F4516B6BF0
:1054240062616C1CD83065854E0062F2ED95066CA5
:105434007BA5011BC1F4088257C40FF5C6D9B0651A
:1054440050E9B712EAB8BE8B7C88B9FCDF1DDD6277
:10545400492DDA15F37CD38C654CD4FB5861B24DDD
:10546400CE51B53A7400BCA3E230BBD441A5DF4AA7
:10547400D795D83D6DC4D1A4FBF4D6D36AE969436A
:10548400FCD96E34468867ADD0B860DA732D044415
:10549400E51D03335F4C0AAAC97C0DDD3C71055040
:1054A400AA41022710100BBE86200CC925B56857E7
:1054B400B3856F2009D466B99FE461CE0EF9DE5E30
:1054C40098C9D9292298D0B0B4A8D7C7173DB359E1
:1054D400810DB42E3B5CBDB7AD6CBAC02083B8ED72
:1054E400B6B3BF9A0CE2B6039AD2B1743947D5EA7F
:1054F400AF77D29D1526DB048316DC73120B63E3AE
:10550400843B64943E6A6D0DA85A6A7A0BCF0EE40C
:105514009DFF099327AE000AB19E077D44930FF0C7
:10552400D2A3088768F2011EFEC206695D5762F7BE
:10553400CB67658071366C19E7066B6E761BD4FEFB
:10554400E02BD3895A7ADA10CC4ADD676FDFB9F9D8
:10555400F9EFBE8E43BEB717D58EB060E8A3D6D69A
:105564007E93D1A1C4C2D83852F2DF4FF167BBD1C8
:105574006757BCA6DD06B53F4B36B248DA2B0DD8CB
:105584004C1B0AAFF64A0336607A0441C3EF60DF6E
:1055940055DF67A8EF8E6E3179BE69468CB361CB57
:1055A4001A8366BCA0D26F2536E2685295770CCC7C
:1055B40003470BBBB91602222F260555BE3BBAC5BD
:1055C400280BBDB2925AB42B046AB35CA7FFD7C2AE
:1055D40031CFD0B58B9ED92C1DAEDE5BB0C2649B9F
:1055E40026F263EC9CA36A750A936D02A906099CD2
:1055F4003F360EEB8567077213570005824ABF9545
:10560400147AB8E2AE2BB17B381BB60C9B8ED292C7
:105614000DBED5E5B7EFDC7C21DFDB0BD4D2D3861E
:1056240042E2D4F1F8B3DD686E83DA1FCD16BE8191
:105634005B26B9F6E177B06F7747B718E65A088862
:10564400706A0FFFCA3B06665C0B0111FF9E658FF3
:1056540069AE62F8D3FF6B6145CF6C1678E20AA09D
:10566400EED20DD75483044EC2B30339612667A723
:10567400F71660D04D476949DB776E3E4A6AD1AE72
:10568400DC5AD6D9660BDF40F03BD83753AEBCA901
:10569400C59EBBDE7FCFB247E9FFB5301CF2BDBD6E
:1056A4008AC2BACA3093B353A6A3B4240536D0BA77
:1056B4009306D7CD2957DE54BF67D9232E7A66B314
:1056C400B84A61C4021B685D942B6F2A37BE0BB4C1
:1056D400A18E0CC31BDF055A8DEF022D00000000C4
:1056E400000000000102030406070809000000008E
:1056F4000102030402030405060708090A0B0C0D42
:105704000E0F10100102030405060708090A0B0C0A
:105714000D0E0F10D4000020000000000000000057
:105724000000000000000000000000000000000075
:105734000000000000000000000000000000000065
:105744000000000000000000000000000000000055
:105754000000000000000000000000000000000045
:105764000000000000000000000000000000000035
:105774000000000000000000232D302B2000686C86
:105784004C00656667454647003031323334353660
:105794003738394142434445460030313233343599
:0C57A400363738396162636465660000C6
:0457B000E9100008F4
:0457B400C110000818
:1057B8005002002000127A000100000004000000DE
:1057C800D4000020000000003C5700085C57000887
:1057D8001C57000800000000000000000000000046
:1057E80000000000000000000000000000000000B1
:1057F80000000000000000000000000000000000A1
:105808000000000000000000000000000000000090
:105818000000000000000000000000000000000080
:04582800000000007C
:10582C00FFFFFFFFFFFFFFFFFFFFFFFFFFFFFFFF7C
:10583C00FFFFFFFFFFFFFFFFFFFFFFFFFFFFFFFF6C
:10584C00FFFFFFFFFFFFFFFFFFFFFFFFFFFFFFFF5C
:10585C00FFFFFFFFFFFFFFFFFFFFFFFFFFFFFFFF4C
:04FFFC00FFFFFFFF05
:020000040801F1
:10000000FFFFFFFFFFFFFFFFFFFFFFFFFFFFFFFF00
:10001000FFFFFFFFFFFFFFFFFFFFFFFFFFFFFFFFF0
:10002000FFFFFFFFFFFFFFFFFFFFFFFFFFFFFFFFE0
:10003000FFFFFFFFFFFFFFFFFFFFFFFFFFFFFFFFD0
:1007D000FFFFFFFFFFFFFFFFFFFFFFFFFFFFFFAA7E
:1007E0002A2A2A2A54454D504C4154452A2A2A2A5D
:1007F0002323232330302E30302E30302323232365
:04000005080020359A
:00000001FF
